:020000040800F2
:100000004033002089010008910100089301000895
:100010009501000897010008990100080000000000
:100020000000000000000000000000009B0100082C
:100030009D010008000000009F010008C1090008A0
:10004000A3010008A3010008A3010008A301000800
:10005000A3010008A3010008A3010008A3010008F0
:10006000A3010008A3010008A3010008A3010008E0
:10007000A3010008A3010008A3010008A3010008D0
:10008000A3010008A3010008A3010008A3010008C0
:1000900075110008A3010008A3010008A3010008CE
:1000A000A3010008A3010008A3010008A3010008A0
:1000B000B50B0008A3010008A3010008A301000874
:1000C000A3010008A3010008A3010008A301000880
:1000D000A3010008110C0008DD0D0008A90F00089D
:1000E000A3010008A3010008A301000800F002F822
:1000F00000F03AF80AA090E8000C82448344AAF188
:100100000107DA4501D100F02FF8AFF2090EBAE885
:100110000F0013F0010F18BFFB1A43F0010318473B
:10012000C4140000E4140000103A24BF78C878C159
:10013000FAD8520724BF30C830C144BF04680C60ED
:10014000704700000023002400250026103A28BF35
:1001500078C1FBD8520728BF30C148BF0B60704739
:100160001FB51FBD10B510BD00F0C9F81146FFF74F
:10017000F7FF01F0D1F900F0E7F803B4FFF7F2FF61
:1001800003BC01F0C6F90000094880470948004750
:10019000FEE7FEE7FEE7FEE7FEE7FEE7FEE7FEE737
:1001A000FEE7FEE704480549054A064B7047000094
:1001B000250B0008ED000008402D002040330020F2
:1001C000402F0020402F002040EA0103024630B5B6
:1001D0009B0710D14FF0013400E008C208C91D1B75
:1001E0009D4315EAC41FF8D013F0FF0102F8011B6C
:1001F0000DD01B0AF8E711F8013B002B02F8013B78
:1002000005D011F8013B002B02F8013BF3D130BDC2
:10021000032A40F2308010F0030C00F0158011F832
:10022000013BBCF1020F624498BF11F801CB00F80A
:10023000013B38BF11F8013BA2F1040298BF00F85E
:1002400001CB38BF00F8013B11F0030300F025801B
:10025000083AC0F0088051F8043B083A51F804CB42
:10026000A0E80810F5E7121D5CBF51F8043B40F808
:10027000043BAFF30080D20724BF11F8013B11F813
:1002800001CB48BF11F8012B24BF00F8013B00F857
:1002900001CB48BF00F8012B704710B5203AC0F0E1
:1002A0000B80B1E81850203AA0E81850B1E8185077
:1002B000A0E81850BFF4F5AF5FEA027C24BFB1E8B4
:1002C0001850A0E8185044BF18C918C0BDE8104025
:1002D0005FEA827C24BF51F8043B40F8043B08BF2E
:1002E0007047D20728BF31F8023B48BF11F8012BF5
:1002F00028BF20F8023B48BF00F8012B7047754625
:1003000000F02CF8AE4605006946534620F0070081
:10031000854618B020B5FFF745FFBDE820404FF0F7
:1003200000064FF000074FF000084FF0000B21F0DF
:100330000701AC46ACE8C009ACE8C009ACE8C009AC
:10034000ACE8C0098D46704710B50446AFF3008095
:100350002046BDE81040FFF710BF0000004870477E
:10036000E02C0020F0B5DDE90554324E06EB001616
:10037000366806F004061670167836B92D4E06EB70
:1003800000163668760D0E6005E02A4E06EB001664
:100390003668F6080E60274E06EB0016366806F043
:1003A00002061E70234E06EB0016766806F00F0656
:1003B0002E70204E06EB0016B66826701D4E06EB1A
:1003C0000016B668360A66701A4E06EB0016B66856
:1003D000360CA670174E06EB0016B668360EE670A1
:1003E000144E06EB0016F6682671124E06EB001648
:1003F000F668360A66710F4E06EB0016F668360C84
:10040000A6710C4E06EB0016F668360EE67130B992
:10041000094E366846F02006074F3E6009E0012885
:1004200007D1054E361D366846F02006024F3F1DA7
:100430003E60F0BDB06500400C640040F8B5054674
:100440000E4600243346002211460C48009500F069
:1004500017F8074601E0601C84B2384600F096F8B1
:10046000072803D040F6FF708442F4DB40F6FF70AB
:10047000844201DB0120F8BD0020FCE778563412ED
:10048000F0B505460E46059C3E48006800F08060C9
:1004900008B100210FE03B48006800F0006008B19F
:1004A000012108E03748006800F0805008B10221BF
:1004B00001E0FF20F0BD0027334800EB011007608A
:1004C0001EB9C5F30A056D0502E025F06045ED0093
:1004D0002D4800EB0110006828432B4F07EB011754
:1004E0003860294800EB0110006840EA860726487A
:1004F00000EB01100760244800EB0110006840EA9F
:100500004207214800EB0110076003F00F031E486B
:1005100000EB0110406820F00F071B4800EB0110B2
:100520004760194800EB011040681843164F07EB6D
:1005300001177860E0790006A77940EA07406779FB
:1005400040EA0727207907430F4800EB0110C760F6
:10055000E0780006A77840EA0740677840EA07207D
:1005600027783843084F07EB0117B860064800EBBF
:100570000110006840F00107034800EB011007601C
:10058000084697E708640040806500400146002067
:1005900021B1012913D0022933D121E01B4A12686D
:1005A00002F001021043194A126802F002021043DD
:1005B000164A126802F0806240EA126023E0134A91
:1005C000126802F001021043104A126802F002029F
:1005D00010430E4A126802F0006240EA526012E0D4
:1005E0000A4A126802F001021043084A126802F037
:1005F00002021043054A126802F0805240EA9260FB
:1006000001E0052000BF00BF704700000864004003
:10061000002107E0002200E0521C41F270739A4270
:10062000FADB491C8142F5DB7047000010B50D482C
:10063000806940F008000B4988610846806940F0F5
:10064000100088610846806940F0400088610322FC
:100650000521054800F00CF803220521034800F0AD
:1006600007F810BD00100240000C014000180140C6
:1006700030B508290CDA03688D000F24AC40A34381
:10068000036003688C0002FA04F4234303600EE065
:10069000A1F10803D9B243688D000F24AC40A343F5
:1006A000436043688C0002FA04F42343436030BD86
:1006B00001480249086070470005FA050CED00E0AA
:1006C00010B500F06BFD10BD2DE9F04104460D465C
:1006D00016460E4F00BF387808B900F05FFD00BF26
:1006E000EFF311800746202080F3118800BF00BF80
:1006F00032462946204600F00BF88046F8B280F3D7
:10070000118800BF00BF4046BDE8F08128280020C6
:100710002DE9F047074688461646C24607EB4701D3
:100720001B4800EBC109D9F8140020B1012811D0F1
:10073000022826D11EE0484600F068FD0546B54275
:1007400001D2002405E0344632465146484600F0C6
:10075000B4FE18E0484600F059FD0546B54201D206
:10076000284600E03046044622465146484600F0FE
:10077000A4FE08E032465146484600F063FE0446B7
:1007800001E0002400BF00BF2046BDE8F087000064
:10079000402800200FB438B5044606A800906A46E9
:1007A0002046059900F007F80546002000902846ED
:1007B00038BC5DF814FB2DE9F04F99B082460D4628
:1007C000144603A814904020159000201690CDF8F0
:1007D00060A0179000BF2E786D1C06B9DDE0252EB5
:1007E00079D100274FF0010900BF2E78232E12D0B7
:1007F0002B2E0CD02D2E02D0302E10D103E047F03E
:1008000001076D1C0EE047F002076D1C0AE047F07F
:1008100004076D1C06E047F008076D1C02E04FF06E
:10082000000900BF00BFB9F1000FDED14FF0000892
:1008300000BF2E78302E01DB392E00DD07E06D1C65
:10084000A6F1300008EB880100EB4108F1E700BF9A
:10085000002013902E782E2E12D16D1C00BF2E7802
:10086000302E01DB392E00DD09E06D1CA6F13000D1
:10087000139901EB810100EB41001390EFE700BFFA
:100880002E7800BF6C2E01D0682E02D16D1C2E7800
:1008900000E000E0F6E700BF702E5DD008DC252EFA
:1008A0006AD0582E35D0632E09D0642E69D113E05A
:1008B000732E3CD0752E1DD0782E62D128E0216891
:1008C000081D2060D1F8009009F0FF0B594614A8CC
:1008D00000F096FD56E058E02168081D2060D1F830
:1008E0000090CDE900870A22494614A8139B00F026
:1008F0009BFC47E02168081D2060D1F80090CDE9FD
:1009000000870A22494614A8139B00F003FD39E032
:1009100000BF2168081D2060D1F80090CDE9008754
:100920001022494614A8139B00F0F4FC2AE0216829
:10093000081D2060D1F800B000BF9BF800600BF1EB
:10094000010B06B906E0314614A800F059FD1798CE
:100950000028F2DA00BF15E02168081D2060D1F8F8
:100960000090002008210B461022CDE900104946D6
:1009700014A800F0CFFC05E0252114A800F040FDEC
:1009800000E000BF00BF6D1C03E0314614A800F07A
:1009900037FD17980028BFF61EAF00BF1798002834
:1009A0000ADD169820B103A95046169AFFF78CFE6F
:1009B000DDE9161008441790179819B0BDE8F08FBC
:1009C00049480068401C48490860484890F80808B1
:1009D000C0F3800068B1454890F80808012101EB98
:1009E000D000424991F8081860F3C7013F4880F8E9
:1009F00008183E4890F8080800F00100A0B13B48F4
:100A000090F80808C0F3400070B1384890F8080822
:100A100020F00200354981F808080846818800F571
:100A20008160405C32490880324890F80808C0F381
:100A3000800068B12F4890F80808012101EBD00030
:100A40002C4991F8081860F3C7012A4880F8081863
:100A5000284890F8080800F00100A0B1254890F857
:100A60000808C0F3400070B1224890F8080820F050
:100A70000200204981F808080846818800F5816055
:100A8000405C1D4908801D4890F80808C0F38000AC
:100A900068B11A4890F80808012101EBD000174905
:100AA00091F8081860F3C701144880F80818134833
:100AB00090F8080800F00100A0B1104890F808086C
:100AC000C0F3400070B10D4890F8080820F0020013
:100AD0000A4981F808080846818800F58160405C71
:100AE000074908807047000000100020081000200F
:100AF0000438014012180020044400401C2000204B
:100B00000448004048F6A0404FF0E0214861084604
:100B1000006940F007000861002101484164704706
:100B200000ED00E01A48406820F470101849486051
:100B30000846406840F4E01048600846406820F4E9
:100B4000803048600846006840F0807008601148B6
:100B5000006840F031000F49086000BF0C48006891
:100B600000F000700028F9D00948406820F0030028
:100B7000074948600846406840F00200486000BFEE
:100B80000348406800F008000028F9D070470000D2
:100B900000100240002002400449086800F4E060B0
:100BA0000349084301490860704700000CED00E06C
:100BB0000400FA054FF08040008A4FF08040008A20
:100BC00020F001004FF08041088270470D4AD26941
:100BD00042F001020B4BDA619A04118590859289EB
:100BE00042F001029B049A811A46128842F00102E7
:100BF0001A801F23044A13704FF08052034B1A606F
:100C000070470000001002401CE400E000E100E03A
:100C10002E48008800F0200010B32C48001D0088EA
:100C2000C1B22B4842880830815429494988481C60
:100C3000C11700EB91518912A0EB8121244A518008
:100C4000104690F8080820F00400001D114681F8B5
:100C50000808084690F8080820F0F80081F808080D
:100C60001A48008800F0400078B31848008820F047
:100C700040001649088016498988481CC11700EBB6
:100C800091518912A0EB8121114A918010468088F0
:100C90001146C988884208D01046818800F58160D5
:100CA000405C0A49091D08800FE0094890F80808CF
:100CB00020F00100064981F80808084690F8080865
:100CC00020F00200801C81F80808704700380140BD
:100CD0000810002010B53B48806940F48040394935
:100CE00088610846806940F0040088610B22092170
:100CF0003548FFF7BDFC08220A213348FFF7B8FC4E
:100D00003048C06840F480402E49C8600846C0683A
:100D100020F48040C8604FF49C702C490880081D66
:100D2000008820F04000091D08800846008840F037
:100D3000040008800846008840F008000880084643
:100D4000008840F0200008800846008840F04000FD
:100D500008800846008840F4005008801B48083886
:100D6000008820F0400019490839088000201849FF
:100D70000880488088800120C880084690F80808CC
:100D800020F0010081F80808084690F8080820F0D3
:100D90000200801C81F80808084690F8080820F036
:100DA000040081F80808084690F8080820F0F800C8
:100DB000303081F808081F210648017020200649BC
:100DC000086010BD001002400008014008380140D2
:100DD0000810002025E400E004E100E02E4800882F
:100DE00000F0200010B32C48001D0088C1B22B4831
:100DF00042880830815429494988481CC11700EBB2
:100E000091518912A0EB8121244A5180104690F81B
:100E1000080820F00400001D114681F80808084663
:100E200090F8080820F0F80081F808081A480088AF
:100E300000F0400078B31848008820F040001649C0
:100E4000088016498988481CC11700EB9151891206
:100E5000A0EB8121114A9180104680881146C988F3
:100E6000884208D01046818800F58160405C0A49BC
:100E7000091D08800FE0094890F8080820F00100DB
:100E8000064981F80808084690F8080820F0020092
:100E9000801C81F8080870470044004012180020A8
:100EA00010B53B48C06940F400303949C861084674
:100EB000806940F0040088610B2202213548FFF769
:100EC000D7FB082203213348FFF7D2FB30480069E3
:100ED00040F400302E4908610846006920F40030D3
:100EE000086140F6A6602C490880081D008820F0A3
:100EF0004000091D08800846008840F00400088072
:100F00000846008840F0080008800846008840F045
:100F1000200008800846008840F04000088008460D
:100F2000008840F4005008801B480838008820F0F2
:100F30004000194908390880002018490880488075
:100F400088800120C880084690F8080820F0010039
:100F500081F80808084690F8080820F00200801C74
:100F600081F80808084690F8080820F0040081F885
:100F70000808084690F8080820F0F800303081F89A
:100F800008081F210648017040200649086010BD6E
:100F900000100240000801400844004012180020E0
:100FA00026E400E004E100E02E48008800F0200084
:100FB00010B32C48001D0088C1B22B48428808306D
:100FC000815429494988481CC11700EB9151891265
:100FD000A0EB8121244A5180104690F8080820F0A7
:100FE0000400001D114681F80808084690F808081A
:100FF00020F0F80081F808081A48008800F0400046
:1010000078B31848008820F0400016490880164937
:101010008988481CC11700EB91518912A0EB8121EE
:10102000114A9180104680881146C988884208D0AC
:101030001046818800F58160405C0A49091D0880DE
:101040000FE0094890F8080820F00100064981F8EF
:101050000808084690F8080820F00200801C81F873
:1010600008087047004800401C20002010B53B488D
:10107000C06940F480203949C8610846806940F061
:10108000080088610B220A213548FFF7F1FA08228F
:101090000B213348FFF7ECFA3048006940F4802018
:1010A0002E4908610846006920F4802008614FF449
:1010B0009C702C490880081D008820F04000091D04
:1010C00008800846008840F0040008800846008830
:1010D00040F0080008800846008840F020000880A2
:1010E0000846008840F0400008800846008840F428
:1010F000005008801B480838008820F0400019493B
:10110000083908800020184908804880888001201C
:10111000C880084690F8080820F0010081F8080807
:10112000084690F8080820F00200801C81F80808A2
:10113000084690F8080820F0040081F808080846DE
:1011400090F8080820F0F800303081F808081F21D6
:101150000648017080200649086010BD001002405A
:10116000000C0140084800401C20002027E400E05B
:1011700004E100E000B588B006A803A904AB05AA05
:10118000CDE9001002A90020FFF7ECF89DF80C1043
:1011900006A8FFF753F908B000BD000010B5124CC7
:1011A00003202061606111A0A0611349E1614FF447
:1011B000806121620021A1626162E1620BA0206670
:1011C0000E4961661021A16600212167E166616711
:1011D0000BA1E01DFEF7F8FF0AA12046FEF7F4FF81
:1011E0002020A07110BD0000282800205465726DD9
:1011F000696E616C00000000D0280020D02C002017
:1012000052545400534547474552000010B501461B
:101210000A69CB689A4204D88C68641EE41AA01844
:1012200001E0D41A601E10BD2DE9FC5F06460F4692
:1012300092469846DDE90C45002F01DA784200E03D
:10124000384683464FF0010903E09BFBFAFB09F1A6
:101250000109D345F9DAC84500D9C14634B1002F98
:1012600003DB05F00400042800D1641E05F0020031
:1012700010B1B8F1000F11D005F0010070B96CB1D8
:1012800008E0641E2021304600F0BAF8F06800281B
:1012900000DA02E00CB1A145F3D300BFF0680028EA
:1012A00036DB002F05DA7F422D21304600F0A8F80A
:1012B00007E005F00400042803D12B21304600F09C
:1012C0009FF8F068002823DB05F00200022814D103
:1012D00005F0010088B9B8F1000F0ED16CB108E03B
:1012E000641E3021304600F08BF8F068002800DAE8
:1012F00002E00CB1A145F3D300BFF068002807DB82
:101300004346524639463046CDE9004500F002F8E2
:10131000BDE8FC9F2DE9FC5F8046894615461E46C8
:101320000C9CCDF804900127BB4605E00198B0FB6A
:10133000F5F001900BF1010B0198A842F6D25E4541
:1013400000D9B3460D9800F00100D0B9CCB10D988A
:1013500000F00200022803D116B93020009001E00D
:101360002020009009E0641E4046009900F048F8F3
:10137000D8F80C00002800DA02E00CB1A345F2D343
:1013800000BFD8F80C00002835DB09E0012E01D998
:10139000761E04E0B9FBF7FAAA4500D201E06F43DC
:1013A000F4E700BF00BFB9FBF7FA0AFB179913482F
:1013B00010F80A10404600F023F8D8F80C00002876
:1013C00000DA03E0B7FBF5F7002FECD100BF0D9872
:1013D00000F0010078B174B109E0641E202140469C
:1013E00000F00EF8D8F80C00002800DA02E00CB18A
:1013F000A345F2D300BFBDE8FC9F0000D415000850
:1014000070B504460E46A568681C6168814206D323
:1014100020684655681CA060E068401CE060D4E984
:10142000011088420DD1A26821682069FFF74CF9AC
:10143000A168884203D04FF0FF30E06001E0002057
:10144000A06070BD2DE9F05F0446894617464FF055
:10145000000AE56800BFD4F81080A84503D9A8EBBE
:101460000500461E04E0A5EB0800401CA1680E1A0A
:10147000A068401BB04201D9304601E0A068401B83
:101480000646BE4201D2304600E038460646606855
:1014900000EB050B324649465846FEF7B9FEB2440A
:1014A000B144BF1B3544A068A84200D10025E560C7
:1014B000002FD0D15046BDE8F09F2DE9F0470446FB
:1014C00089461546E668A068871BAF420AD960685E
:1014D00000EB060A2A4649465046FEF799FE701967
:1014E000E06014E0B846606800EB060A42464946F0
:1014F0005046FEF78DFEA5EB0708D4F804A009EBD3
:10150000070142465046FEF783FEC4F80C80BDE852
:10151000F08700BF70470000FFF7CAF8FFF7F2FA44
:1015200023216320FFF752FBFFF7D4FBFFF7B8FC42
:10153000FFF79CFDFFF77AF8FFF7C2F818A100202B
:10154000FFF728F92AE01B481BA102680020FFF7DB
:1015500021F91C480068401C1A49086008460068C8
:101560000A2806D913480068401C12490860FFF792
:1015700013FB1548006808B9012000E0002012495B
:1015800008604FF4FA70FFF743F81048D0F8940160
:1015900008B9012000E000200D490860D3E70000F1
:1015A00070726F6772616D20737461727420210DA7
:1015B0000A000000000000206E756D203D2025759A
:1015C0000D0A0000041000209481214200002342F3
:1015D0009401234230313233343536373839414281
:1015E000434445460416000800100020080000008F
:1015F000280100080C1600080810002038230000FD
:0C16000044010008000000000000000091
:04000005080000ED02
:00000001FF
